:020000040800F2
:10000000302E00201D0800082106000823060008E5
:10001000270600082B0600082F0600080000000035
:10002000000000000000000000000000330600088F
:1000300035060008000000003706000839060008F1
:100040003708000837080008370800083708000894
:100050003708000837080008370800083708000884
:100060003708000837080008370800083708000874
:100070003708000837080008370800083708000864
:100080003708000837080008370800083708000854
:100090003708000837080008370800083708000844
:1000A0003708000837080008370800083708000834
:1000B0003708000837080008E72900083708000853
:1000C0003708000837080008370800083708000814
:1000D000370800083B260008BF270008EB8400080B
:1000E00037080008370800083708000837080008F4
:1000F00037080008370800083708000837080008E4
:1001000037080008370800083708000837080008D3
:1001100037080008370800083708000837080008C3
:1001200037080008370800083708000837080008B3
:1001300000F002F800F090F80AA090E8000C824469
:100140008344AAF10107DA4501D100F085F8AFF246
:10015000090EBAE80F0013F0010F18BFFB1A43F0A5
:1001600001031847F0E1000010E20000103A24BF3C
:1001700078C878C1FAD8520724BF30C830C144BF0C
:1001800004680C607047000000230024002500264E
:10019000103A28BF78C1FBD8520728BF30C148BFEA
:1001A0000B6070476E290AF0D98370290AF0B78175
:1001B00066290CF0388465290CF0358467290CF029
:1001C00032846129AFF3008003681B0A28BF41F025
:1001D000800169290AF0868364290AF083837529DE
:1001E0000AF080836F290AF0BB8478290AF08381A2
:1001F000E9290AF05584E4290AF05284F5290AF025
:100200004F84EF290AF0B884F8290AF08281036844
:10021000DB0928BF41F0800163290AF017877329A1
:100220000AF01C87E3290AF02787F3290AF02C87B4
:10023000002070471FB50AF081FF04000020002154
:100240000BF08AFC401C6060002000210BF06EFC6B
:10025000E0601FBD10B510BD0AF042FF1146FFF768
:10026000E9FF00F0C7F90BF01BF803B4FFF7F2FF4A
:1002700003BC02F087F900001CB54FF6FF7003F0D5
:10028000FCFF1F20DD490880DDA01021CDE9001012
:10029000DD490988203988B21023C822002108F0DE
:1002A00017F8DAA010210B462022CDE9001000211A
:1002B000084608F00DF84FF47840D04908801CBD7E
:1002C000F8B505460E4614461F4604B9F8BD281970
:1002D000401E82B2334631462846009707F02DFD76
:1002E00000BFF3E72DE9F05F0746884616469A46B9
:1002F00040F2C32070434FF47A71B0FBF1F000F18B
:10030000010906FB06F000EB560B344671040A0C9B
:10031000B91B88B253464146FFF7D2FF012535E0AD
:1003200005FB05F004FB040058451AD94C4517D9C4
:100330006B1E5B041A0C08EB040399B27B1B5B1C5D
:1003400098B25346FFF7BCFF6B1E5B041A0CA8EB78
:10035000040399B27B1B5B1C98B25346FFF7B0FFB6
:10036000641E63041A0C08EB050399B23B1B98B298
:100370005346FFF7A5FF63041A0CA8EB050399B2D7
:100380003B1B98B25346FFF79BFF6D1C4D45C7D9E9
:10039000BDE8F09F02468A4202DD501A80B27047E3
:1003A000881A80B2FBE72DE9FF4F85B08046894669
:1003B000129F002003900290B84507DB0798B842CF
:1003C00004DBB94502DB0898B84202DA09B0BDE89F
:1003D000F08F0798A0EB08040898A0EB0905CDF86A
:1003E0000480CDF80090002C02DD4FF0010A06E0F9
:1003F00014B94FF0000A02E04FF0FF3A6442002DBA
:1004000002DD4FF0010B06E015B94FF0000B02E0E2
:100410004FF0FF3B6D42AC4201DD264600E02E4628
:100420000020049023E0009A91B2019A90B23A46DB
:10043000139BFFF757FF039820440390029828442A
:1004400002900398B04205DD0398801B0390019849
:10045000504401900298B04205DD0298801B029042
:100460000098584400900498401C80B20490711C7D
:1004700004988842D7DD00BFA8E702461046082945
:100480001DD2DFE801F004070A0D1013161940F021
:10049000800014E040F0400011E040F020000EE049
:1004A00040F010000BE040F0080008E040F00400CD
:1004B00005E040F0020002E040F0010000BF00BF94
:1004C00070472DE9F04104460F4625462646E217BF
:1004D00004EB5272D210C7EB0713DFF838C10CEBF4
:1004E0004303985CE21704EB5272D210A4EBC201F2
:1004F000FFF7C3FFA046E11704EB5171C910C7EB2A
:100500000712444B03EB42025054BDE8F081002433
:1005100066E0002007F045FF3F484168002088471B
:100520003D4890F8200000F08000002840D03A4874
:1005300080893549098888423DDA3748C08A32497E
:100540004988884237DA3448808920280EDA3248D0
:10055000C08A10280ADA2F4808F0F4F9FFF78CFE59
:100560004FF4E1512B480AF0A9F824E02A48818988
:10057000254800882038814206DD2748C08A102897
:1005800002DAFFF779FE16E02348C08AF02812DC71
:10059000214AD18A90894FF4784208F0D4FD1E4A4E
:1005A000D18A9089FFF78DFF0A2001F0BEFF02E09B
:1005B0000A2001F0BAFF601CC4B2142094FBF0F1D1
:1005C00000FB114060B91548006808B9012000E03F
:1005D00000201249086008460168012008F04CFC20
:1005E00097E710B5032008F016FC0121084608F033
:1005F00043FC10BDFFF7F5FF00BFFEE73800002009
:1006000052657374000000003026002053656E644C
:1006100000000000800000204000002000000020BA
:10062000704700BFFEE700BFFEE700BFFEE700BF68
:10063000FEE7704770477047704700000CB5002018
:10064000019000906C48006840F480306A4908606E
:1006500000BF6948006800F4003000900198401C19
:100660000190009818B90198B0F5A06FF1D16248D7
:10067000006800F4003010B10120009001E000207B
:1006800000900098012843D15C48006840F01000B9
:100690005A4908600846006820F0030008600846D0
:1006A000006840F0020008605348406852494860C2
:1006B0000846406848600846406840F480604860EA
:1006C0000846406820F47C1048600846406840F4C2
:1006D000E81048600846006840F08070086000BF7D
:1006E0004548006800F000700028F9D04248406892
:1006F00020F00300404948600846406840F002008E
:10070000486000BF3C48406800F00C000828F9D160
:100710000CBD10B5FFF792FF10BD10B5364800684C
:1007200040F00100344908600846406834490840F8
:100730003149486008460068324908402E4908603F
:100740000846006820F4802008600846406820F4CD
:10075000FE0048604FF41F008860FFF7DAFF4FF09B
:1007600000602949086010BD10B50021002000225A
:10077000214B5B6803F00C0121B1042906D0082944
:1007800028D107E0214B224C236027E01F4B204C4F
:10079000236023E0184B5B6803F47010164B5B6812
:1007A00003F48032022303EB904022B9194B4343F8
:1007B000174C23600DE0104B5B6803F4003323B14A
:1007C000144B4343124C236003E0104B4343104C43
:1007D000236003E00D4B0E4C236000BF00BF064BAF
:1007E0005B68C3F303130C4CE15C094B1B68CB4003
:1007F000074C236010BD00000010024000200240A2
:100800000000FFF8FFFFF6FE08ED00E000127A009E
:100810000400002000093D0008000020094880472E
:1008200009480047FEE7FEE7FEE7FEE7FEE7FEE7D2
:10083000FEE7FEE7FEE7FEE704480549054A064BEA
:10084000704700001B070008310100083028002015
:10085000302E0020302A0020302A00203149014368
:10086000314A1160704770B5002100230F22C4780F
:1008700004B32D4C246804F4E064C4F5E064210A58
:10088000C1F10403CA40447804FA03F184781440A7
:1008900021430901254C0678A155047804F01F0571
:1008A0000124AC4005786D11AD0005F1E025C5F8D7
:1008B000004109E0047804F01F050124AC401C4D00
:1008C0000678761145F8264070BD1A4A0A40024360
:1008D000154B1B1F1A60704739B1134A121D12685D
:1008E0000243114B1B1D1A6006E00F4A121D1268CD
:1008F00082430D4B1B1D1A607047042808D14FF02E
:10090000E021096941F004014FF0E022116107E0A4
:100910004FF0E021096921F004014FF0E02211615C
:10092000704700000000FA050CED00E000E400E074
:1009300080E100E080FFFF1F01684FF6FE7211406A
:1009400001600021016041608160C1608D49884281
:1009500008D18C490839496841F00F01894A083AA1
:1009600051608AE087491431884208D185490839A5
:10097000496841F0F001834A083A51607DE08149BD
:100980002831884208D17F490839496841F47061AB
:100990007C4A083A516070E07A493C31884208D17B
:1009A00078490839496841F47041764A083A5160FB
:1009B00063E074495031884208D172490839496866
:1009C00041F470216F4A083A516056E06D49643134
:1009D000884208D16B490839496841F47001694A75
:1009E000083A516049E067497831884208D1654941
:1009F0000839496841F07061624A083A51603CE048
:100A00006149884206D1011F096841F00F01021FA8
:100A1000116032E05C491431884208D15A49091FFB
:100A2000096841F0F001584A121F116025E056494B
:100A30002831884208D15449091F096841F470617E
:100A4000514A121F116018E04F493C31884208D1C9
:100A50004D49091F096841F470414B4A121F11604A
:100A60000BE049495031884207D14749091F0968BD
:100A700041F47021444A121F1160704710B50022E2
:100A8000026847F6F0739A430C6A8B6823430C693B
:100A900023434C6923438C692343CC6923434C6A29
:100AA00023438C6A23431A430260CB6843600B687C
:100AB00083604B68C36010BD0021016041608160AC
:100AC000C160016141618161C16101624162816214
:100AD000704721B1026842F00102026004E002683E
:100AE0004FF6FE731A40026070471AB103680B4359
:100AF000036002E003688B43036070474160704706
:100B00000146486880B2704701460020002201F08B
:100B100080531BB11C4B083B1A6802E0194B083B81
:100B20001A6802EA01030BB1012000E000207047BF
:100B300000F0805119B11449091F086002E0114901
:100B400008394860704701460020002201F08053B8
:100B50001BB10D4B083B1A6802E00A4B083B1A68B0
:100B600002EA01030BB1012000E00020704700F011
:100B7000805119B10449091F086002E00149083990
:100B800048607047080002400804024010B504465F
:100B9000CC48844208D10121042000F02DFB002123
:100BA000042000F029FB46E0C748844208D1012117
:100BB000082000F021FB0021082000F01DFB3AE096
:100BC000C248844208D10121102000F015FB002109
:100BD000102000F011FB2EE0BD48844208D1012115
:100BE000202000F009FB0021202000F005FB22E07E
:100BF000B848844208D10121402000F0FDFA0021CC
:100C0000402000F0F9FA16E0B348844208D10121EF
:100C1000802000F0F1FA0021802000F0EDFA0AE0D7
:100C2000AE48844207D10121801500F0E5FA002189
:100C3000A01500F0E1FA10BD10B50121084600F042
:100C4000DBFA0021012000F0D7FA10BD2DE9F041B8
:100C5000024600250026002000230024002791F8EA
:100C600003C00CF00F0591F803C00CF0100CBCF1A0
:100C7000000F03D091F802C04CEA050591F800C0BE
:100C8000BCF1000F31D0146800202BE04FF0010CB4
:100C90000CFA00F3B1F800C00CEA03069E4220D122
:100CA00083004FF00F0C0CFA03F7BC4305FA03FC6A
:100CB0004CEA040491F803C0BCF1280F06D14FF0B0
:100CC000010C0CFA00FCC2F814C00AE091F803C051
:100CD000BCF1480F05D14FF0010C0CFA00FCC2F832
:100CE00010C0401C0828D1D31460B1F800C0BCF17A
:100CF000FF0F34DD546800202EE000F1080C4FF0A7
:100D0000010808FA0CF3B1F800C00CEA03069E4291
:100D100021D183004FF00F0C0CFA03F7BC4305FA06
:100D200003FC4CEA040491F803C0BCF1280F05D180
:100D300000F1080C08FA0CF8C2F8148091F803C00E
:100D4000BCF1480F07D100F1080C4FF0010808FA78
:100D50000CF8C2F81080401C0828CED35460BDE8BF
:100D6000F0814FF6FF710180022181700421C17072
:100D700070470246002093680B400BB1012000E051
:100D8000002070470146886880B270470246002004
:100D9000D3680B400BB1012000E0002070470146F2
:100DA000C86880B2704701617047416170470AB1FD
:100DB000016100E041617047C16070474FF48032CB
:100DC0000A43826181618261826982697047024659
:100DD0000020434B18684FF68073184040EA021019
:100DE00008433F4B186070473E49C8617047F0B5F3
:100DF0000A46002300240021002500F00046B6F139
:100E0000004F02D1364EF16901E0354E7168C0F3F2
:100E1000034583B200F44016B6F5401F08D121F017
:100E200070612F4E766826F070662D4F7E6012E05E
:100E300000F48016B6F5801F06D1032606FA05F4E5
:100E4000A14341F0706106E0460D360103FA06F653
:100E5000B14341F0706122B1460D360103FA06F646
:100E6000314300F00046B6F1004F02D11C4EF16153
:100E700001E01B4E7160F0BD30B500228B071C0FE6
:100E80000F2303FA04F2164B08338C1053F8243066
:100E90009343134C08348D1044F8253023468C10AE
:100EA00053F824308C07240F00FA04F423430C4C2D
:100EB00008348D1044F8253030BD0A49DC31086013
:100EC0007047000000080140000C01400010014084
:100ED0000014014000180140001C014000200140A6
:100EE0000000014000002042DF48006840F001009F
:100EF000DD49086008464068DC490840DA49486036
:100F000008460068DA490840D74908600846006882
:100F100020F4802008600846406820F4FE00486005
:100F20004FF41F0088607047CF49096821F4803171
:100F3000CD4A11601146096821F480211160B0F595
:100F4000803F03D0B0F5802F0ED106E0C649096876
:100F500041F48031C44A116007E0C349096841F493
:100F6000A021C14A116000E000BF00BF704710B56A
:100F700001460022002300204A11012A02D1BA4C66
:100F8000236806E0022A02D1B74C236A01E0B64C7E
:100F9000636A01F01F02012494401C400CB101203F
:100FA00000E0002010BD38B500200090002400258E
:100FB00000BF3120FFF7DBFF05460098401C009082
:100FC0000098B0F5A06F01D0002DF2D03120FFF7CE
:100FD000CEFF08B1012400E00024204638BD0146C0
:100FE0000020A14A106820F0F80040EAC10010601B
:100FF0007047A04908607047024600209A4B586825
:1010000020F47C1042EA01031843974B5860704764
:1010100098490866704701460020934A506820F0BE
:1010200003000843506070478F48406800F00C0090
:101030007047014600208C4A506820F0F0000843B9
:101040005060704701460020874A506820F4E060F5
:1010500008435060704701460020834A506820F4DE
:10106000605040EAC1005060704729B17E4A527A10
:1010700002437D4B5A7204E07B4A527A82437A4B98
:101080005A7270477B49D83108607047014600208A
:10109000754A506820F44040084350607047002172
:1010A000714A20321170704A82F82010012802D053
:1010B00004280AD104E001216B4A2032117005E0B6
:1010C0000521694A2032117000E000BF00BF70475F
:1010D0006949086070476449096A0143624A1162BC
:1010E0007047654944390860704730B500210022D7
:1010F000002400235C4D6D6805F00C0121B104292A
:1011000005D0082923D105E05C4D056022E05B4D48
:1011100005601FE0544D6D6805F47012524D6D6806
:1011200005F48034022505EB92421CB9544D554319
:1011300005600BE04C4D6D6805F400351DB1504D58
:101140005543056002E04D4D5543056002E04B4DAF
:10115000056000BF00BF444D6D6805F0F00109094E
:10116000484D6B5C0568DD4045603F4D6D6805F49A
:10117000E061090A434D6B5C4568DD4085603A4D8E
:101180006D6805F46051C90A3E4D6B5C4568DD40F1
:10119000C560354D6D6805F44041890B3A4D6B5C77
:1011A000C568B5FBF3F5056130BD29B12E4A52691A
:1011B00002432D4B5A6104E02B4A526982432A4B69
:1011C0005A61704729B1284A92690243264B9A61B5
:1011D00004E0254A92698243234B9A61704729B102
:1011E000214AD2690243204BDA6104E01E4AD269E7
:1011F00082431D4BDA61704729B11B4AD268024312
:10120000194BDA6004E0184AD2688243164BDA6060
:10121000704729B1144A12690243134B1A6104E062
:10122000114A12698243104B1A61704712494039C2
:10123000086070470F49C86470470B49C871704710
:101240000948406A40F0807007494862704701468B
:101250000020054A92680A400AB1012000E00020FF
:101260007047014988727047001002400000FFF883
:10127000FFFFF6FE000042428004424200127A0064
:1012800000093D00180000202800002010B5044689
:10129000FE48844208D10121C014FFF7ADFF0021B0
:1012A000E014FFF7A9FFC4E0B4F1804F08D1012199
:1012B0000846FFF7AEFF00210120FFF7AAFFB8E0C4
:1012C000F348844208D101210220FFF7A2FF002148
:1012D0000220FFF79EFFACE0EE48844208D10121D6
:1012E0000420FFF796FF00210420FFF792FFA0E003
:1012F000E948844208D101210820FFF78AFF002134
:101300000820FFF786FF94E0E448844208D10121D9
:101310001020FFF77EFF00211020FFF77AFF88E002
:10132000DF48844208D101212020FFF772FF00210D
:101330002020FFF76EFF7CE0DA48844208D10121CB
:101340004014FFF759FF00216014FFF755FF70E0CC
:10135000D548844209D10121C804FFF74DFF00217F
:101360004FF40020FFF748FF63E0D048844209D1E2
:1013700001210805FFF740FF00214FF48010FFF71F
:101380003BFF56E0CA48844209D101214805FFF7D6
:1013900033FF00214FF40010FFF72EFF49E0C5484E
:1013A000844208D101214020FFF733FF0021402073
:1013B000FFF72FFF3DE0C048844208D10121802083
:1013C000FFF727FF00218020FFF723FF31E0BB4814
:1013D000844208D101218015FFF71BFF0021A015D1
:1013E000FFF717FF25E0B648844209D10121080420
:1013F000FFF702FF00214FF48030FFF7FDFE18E0F9
:10140000B048844209D101214804FFF7F5FE0021CC
:101410004FF40030FFF7F0FE0BE0AB48844208D1F8
:1014200001218804FFF7E8FE00214FF48020FFF738
:10143000E3FE10BD00220288944B98420ED0994BD7
:1014400098420BD0B0F1804F08D0914B984205D014
:10145000904B984202D0904B984204D14FF68F7334
:101460001A404B881A438D4B984207D08C4B9842B8
:1014700004D04FF6FF431A40CB881A4302808B8872
:1014800083850B880385814B98420BD0854B98420E
:1014900008D08B4B984205D08A4B984202D08A4B99
:1014A000984201D10B7A038601238382704770B57D
:1014B000002400220023058C4FF6FE76354005847B
:1014C000028C8388048B4FF68F752C40B51E2C4000
:1014D0000D882C43751E2A400D892A434D882A43C6
:1014E0006A4DA8420BD06F4DA84208D0744DA84257
:1014F00005D0744DA84202D0734DA84213D14FF6C7
:10150000F7752A404D892A434FF6FB752A408D888E
:101510002A434FF6FF652B404FF6FF552B408D8930
:101520002B43CD892B4383800483CD888586028419
:1015300070BD70B5002400220023058C4FF6EF76B5
:1015400035400584028C8388048B48F6FF752C4057
:101550004FF6FF452C400D884FF6FF7606EA05252D
:101560002C434FF6DF752A400D8906EA05152A43FC
:101570004D8806EA05152A43444DA84202D0494D3C
:10158000A8421DD14FF67F752A404D894FF6FF7650
:1015900006EA05152A434FF6BF752A408D8806EAEC
:1015A00005152A434FF6FF352B404FF2FF752B40B0
:1015B0008D8906EA85052B43CD8906EA85052B43EF
:1015C00083800483CD880587028470BD70B50024B4
:1015D00000220023058C4FF6FF6635400584028CFF
:1015E0008388848B4FF68F752C404FF6FC752C400A
:1015F0000D882C434FF6FF552A400D894FF6FF7694
:1016000006EA05252A434D8806EA05252A431F4D8B
:10161000A84202D0234DA8421DD14FF2FF752A40A7
:101620004D894FF6FF7606EA05252A434FF6FF352A
:101630002A408D8806EA05252A434EF6FF752B4081
:101640004DF6FF752B408D8906EA05152B43CD8994
:1016500006EA05152B4383808483CD888587028421
:1016600070BD70B5002200230024058C4EF6FF7675
:1016700035400584038C8488828B48F6FF752A40A8
:101680004FF6FF452A400D8820E00000002C014065
:101690000004004000080040000C00400010004022
:1016A0000014004000340140004C01400050014053
:1016B0000054014000180040001C00400020004081
:1016C0000040014000440140004801404FF6FF76D1
:1016D00006EA05252A434DF6FF752B400D8906EADB
:1016E00005352B434D8806EA05352B43FA4DA842B4
:1016F00002D0FA4DA84208D14BF6FF752C408D89D7
:101700004FF6FF7606EA85152C4384808283CD88C8
:10171000A0F84050038470BD828B4FF2FF331A4013
:101720008283828B4FF6FF7303EA01231A4382837D
:101730007047F0B50C461546002200210026078CA4
:101740004EF6FF7C07EA0C070784828B018C4FF66C
:10175000FF7707EA043640F6FF473A404FF6FF7737
:1017600007EA05273A434FF6FF7707EA03373A437C
:10177000D94FB8420ED0D94FB8420BD0B0F1804FFC
:1017800008D0D74FB84205D0D64FB84202D0D64F76
:10179000B84206D14DF6FF77394046F480573943B9
:1017A00005E047F6FF57394044F4805739438283B8
:1017B0000184F0BD828B4FF6F3731A408283828BD3
:1017C0000A4382837047F0B50C461546002200217B
:1017D0000026078C4FF6FF6C07EA0C070784828B04
:1017E000018C4FF6FF7707EA04264FF60C773A4054
:1017F0004FF6FF7707EA03172F433A43B64FB84235
:101800000ED0B64FB8420BD0B0F1804F08D0B44FD5
:10181000B84205D0B34FB84202D0B34FB84206D158
:101820004FF6FF57394046F48077394305E04FF2D1
:10183000FF57394044F48077394382830184F0BDF7
:10184000028B4FF2FF331A400283028B4FF6FF7375
:1018500003EA01231A4302837047F0B50C4615468C
:10186000002200210026078C4FF6EF7C07EA0C07C8
:101870000784028B018C4FF6FF7707EA041640F6C7
:10188000FF473A404FF6FF7707EA03373A434FF6F0
:10189000FF7707EA05273A438F4FB8420ED08F4FA4
:1018A000B8420BD0B0F1804F08D08D4FB84205D070
:1018B0008C4FB84202D08C4FB84206D14FF6DF773A
:1018C000394046F01007394305E04FF65F7739405D
:1018D00044F01007394302830184F0BD028B4FF6B8
:1018E000F3731A400283028B0A4302837047F0B5F8
:1018F0000C46154600220021068C4FF6FE773E402E
:101900000684028B018C4FF60C7632407E1C06EA70
:1019100003162E433243704EB0420ED06F4EB0428B
:101920000BD0B0F1804F08D06D4EB04205D06D4E57
:10193000B04202D06C4EB04206D14FF6FD76314037
:1019400044F00106314305E04FF6F576314044F0AE
:101950000106314302830184F0BD70B505460C4693
:101960005D4885420ED05D4885420BD0B5F1804F71
:1019700008D05B48854205D05A48854202D05A4873
:10198000854200D100E000BF208850B92389A28899
:1019900061882846FFF7ABFFE1882846FFF79EFFE6
:1019A00025E0208804280AD12389A2886188284656
:1019B000FFF753FFE1882846FFF742FF17E0208832
:1019C00008280AD12389A28861882846FFF7FBFEF0
:1019D000E1882846FFF7EEFE09E02389A2886188A6
:1019E0002846FFF7A6FEE1882846FFF795FE70BD62
:1019F0002DE9F04105460C4600260127608808B90C
:101A0000022600E00026A088012801D1022700E07C
:101A100001272088A0B92389A28861882846FFF77A
:101A200066FFE1882846FFF759FF23893A46314689
:101A30002846FFF712FFE1882846FFF701FF13E071
:101A40002389A28861882846FFF707FFE188284696
:101A5000FFF7F6FE23893A4631462846FFF747FF4F
:101A6000E1882846FFF73AFFBDE8F0810A884B88F5
:101A70001A438B881A43CB881A430B891A434B8924
:101A80001A438B891A43A0F8442070474FF6FF7120
:101A9000818000210180C180418001727047002156
:101AA000018041808180C180018141818181C1812A
:101AB0007047002101804180012181800021C18087
:101AC000018170470021018041808180C1800181B6
:101AD0004181818170470000002C014000340140A9
:101AE0000004004000080040000C004021B10288C2
:101AF00042F00102028004E002884FF6FE731A40B1
:101B00000280704731B1B0F8442042F40042A0F89E
:101B1000442005E0B0F84420C2F30E02A0F84420AF
:101B200070471AB183890B43838102E083898B4319
:101B3000838170478182704741EA0203A0F84830F0
:101B400070471AB183890B43838102E083898B43F9
:101B50008381704701894FF6F87211400181704707
:101B60000A46002101894FF68F7319401143018104
:101B7000704730B504460D4629462046FFF7F0FF72
:101B8000208940F00700208130BD2DE9F041044656
:101B90000D4616461F46602D06D13B4601223146B2
:101BA0002046FFF75AFE05E03B460122314620461B
:101BB000FFF79DFE29462046FFF7D2FF208940F01F
:101BC00007002081BDE8F08130B50C460021018975
:101BD000C9B24FF6FF7505EA03251543254329438E
:101BE000018130BD2DE9F04105460E461746984665
:101BF000002443463A4631462846FFF7E5FF2C8944
:101C00004FF6F870044044F007044FF68F7004401C
:101C100044F070042C81BDE8F081F0B504460D4617
:101C200016461F463B46324629462046FFF7CCFF64
:101C3000208940F480402081F0BD01858282704778
:101C40000A46002101884FF68F7319401143018025
:101C50007047F0B50C4615461E46002100220023B1
:101C60000189028B038C4FF6F877394021434FF6F8
:101C7000FC473A4040F201173A434FF6DD773B40CC
:101C80004FF6FF7707EA06172F433B430181028394
:101C90000384F0BD0A460021018B4FF68F73194073
:101CA0001143018370470A460021018B48F6FF73F8
:101CB00019404FF6FF7303EA02231943018370476B
:101CC0000A460021818B4FF68F731940114381839F
:101CD00070470A460021818B48F6FF7319404FF682
:101CE000FF7303EA022319438183704721B10288FD
:101CF00042F08002028004E002884FF67F731A40AF
:101D00000280704721B1828842F00402828004E0A0
:101D100082884FF6FB731A408280704721B1828817
:101D200042F00802828004E082884FF6F7731A407E
:101D30008280704721B1828842F00102828004E0F3
:101D400082884FF6FE731A40828070470A4600214F
:101D5000018B4FF6F77319401143018370470A4610
:101D60000021018B4FF2FF7319404FF6FF7303EA16
:101D700002231943018370470A460021818B4FF6E5
:101D8000F77319401143818370470A460021818B04
:101D90004FF2FF7319404FF6FF7303EA0223194312
:101DA000818370470A460021018B4FF6FB7319406F
:101DB0001143018370470A460021018B4FF6FF3320
:101DC00019404FF6FF7303EA02231943018370475A
:101DD0000A460021818B4FF6FB7319401143818322
:101DE00070470A460021818B4FF6FF3319404FF6AA
:101DF000FF7303EA02231943818370470A460021D7
:101E0000018B4FF67F7319401143018370470A46D7
:101E10000021018BC1F30E014FF6FF7303EA022389
:101E20001943018370470A460021818B4FF67F7367
:101E300019401143818370470A460021818BC1F309
:101E40000E014FF6FF7303EA0223194381837047A3
:101E50000A460021018C4FF6FD731940114301849D
:101E600070470A460021018C4FF6F7731940114361
:101E7000018470470A460021018C4FF6DF73194038
:101E80004FF6FF7303EA02131943018470470A46B1
:101E90000021018C4FF67F7319404FF6FF7303EA60
:101EA00002131943018470470A460021018C4FF642
:101EB000FF5319404FF6FF7303EA022319430184CD
:101EC00070470A460021018C4FF2FF7319404FF60C
:101ED000FF7303EA02231943018470470A46002175
:101EE000018C4DF6FF7319404FF6FF7303EA02337E
:101EF00019430184704730B5002301248C40A3B2FC
:101F0000048C9C430484048C02FA01F5ADB22C438A
:101F1000048430BD30B5002304248C40A3B2048C6B
:101F20009C430484048C02FA01F5ADB22C43048472
:101F300030BD70B503460020002418461830012536
:101F40008D40ACB21D8CA5431D8409B1082909D16F
:101F500000EB6100056825F0700505600568154314
:101F600005600EE00D1FC5F34E052844056825F4F5
:101F7000E045056005684FF6FF7606EA0226354320
:101F8000056070BD21B1028842F00202028004E0C7
:101F900002884FF6FD731A400280704721B1028813
:101FA00042F00402028004E002884FF6FB731A40FC
:101FB0000280704721B1828842F08002828004E072
:101FC00082884FF67F731A408280704702884FF6EE
:101FD000F7731A40028002880A43028070478288A1
:101FE0004FF68F731A40828082880A43828070473E
:101FF00002894FF6F8731A40028102890A4302816E
:10200000704702894FF67F731A40028102890A43A2
:10201000028170478184704781857047818670474F
:102020000187704781877047A0F840107047028889
:102030004FF6FF431A40028002880A43028070472D
:102040000146888E70470146088F70470146888F89
:1020500070470146B1F8400070470146888C7047D0
:102060000146088D704702460020138A0B400BB1D1
:10207000012000E000207047CA430282704730B55B
:102080000246002000230024158A05EA01039589F1
:1020900005EA010413B10CB1012000E0002030BDBD
:1020A000CA4302827047000010B50446FB488442D0
:1020B00009D101218803FFF79FF800214FF48040E8
:1020C000FFF79AF832E0F648844209D1012148042A
:1020D000FFF79FF800214FF40030FFF79AF825E052
:1020E000F048844209D101218804FFF792F80021C9
:1020F0004FF48020FFF78DF818E0EB48844209D1B7
:102100000121C804FFF785F800214FF40020FFF7F4
:1021100080F80BE0E548844208D101210805FFF76B
:1021200078F800214FF48010FFF773F810BD2DE907
:10213000F04786B005460E460024A24600BFA146E1
:102140000027B08900B100BF2F462C8A4CF6FF70E3
:102150000440F08804432C82AC894EF6F31004400E
:10216000B08831890843718908430443AC81AC8A43
:102170004FF6FF400440B0890443AC8201A8FEF74B
:10218000B4FFC648874202D1DDF810A001E0DDF8B7
:102190000CA0A88900F4004040B10AEBCA0000EB93
:1021A0000A1031684900B0FBF1F807E00AEBCA00F9
:1021B00000EB0A1031688900B0FBF1F86420B8FB2D
:1021C000F0F004012009642101FB1089A88900F4C2
:1021D000004040B1322000EBC900B0FBF1F000F04C
:1021E0000700044308E0322000EB09106421B0FB33
:1021F000F1F000F00F0004432C8106B0BDE8F08739
:102200004FF41651016000218180C18001810C21B1
:10221000418100218181704710B502460020108A5B
:102220004FF2FF0318400B884C8823438C882343CC
:10223000CC8823431843108210BD002101804180C7
:102240008180C180704721B1828942F4005282812D
:1022500004E082894DF6FF731A4082817047F0B521
:102260000346002400260025002040F66A17B942E4
:1022700000D100BF1846C1F3421401F01F06012728
:1022800007FA06F5012C01D10C3004E0022C01D133
:10229000103000E014301AB107682F43076002E0E5
:1022A0000768AF430760F0BD1AB1838A0B4383828E
:1022B00002E0838A8B4383827047028A4FF6F07371
:1022C0001A400282028A0A430282704782894FF2D0
:1022D000FF731A40828182890A438281704721B14B
:1022E000828942F00202828104E082894FF6FD7306
:1022F0001A4082817047028A4FF6DF731A400282C9
:10230000028A0A430282704721B1028A42F4804263
:10231000028204E0028A4BF6FF731A400282704781
:10232000C1F308028280704701468888C0F3080024
:102330007047818941F0010181817047028BD2B2DF
:102340000283028B42EA012202837047028B02F46D
:102350007F420283028B0A430283704721B1828A43
:1023600042F02002828204E0828A4FF6DF731A4034
:102370008282704721B1828A42F01002828204E098
:10238000828A4FF6EF731A408282704721B1828AA7
:1023900042F00802828204E0828A4FF6F7731A4004
:1023A0008282704721B1828942F40042828103E037
:1023B0008289C2F30E028281704721B1828A42F47F
:1023C0000062828204E0828A4FF2FF731A408282A6
:1023D0007047828A4FF6FB731A408282828A0A43D0
:1023E0008282704721B1828A42F00202828204E036
:1023F000828A4FF6FD731A4082827047024600209F
:10240000B1F5007F00D100BF13880B400BB1012054
:1024100000E00020704701F40072B2F5007F00D1A7
:1024200000BFCA430280704770B5024600240023F3
:102430000025002040F66A16B14200D100BFC1F36A
:10244000421501F01F03012606FA03F3012D02D104
:102450009689334006E0022D02D1168A334001E00E
:10246000968A33400C12012606FA04F4168834408A
:1024700013B10CB1012000E0002070BD10B50022A6
:10248000002340F66A14A14200D100BF0A120124C1
:102490009440A3B2DC43048010BD0000003801402A
:1024A0000044004000480040004C00400050004004
:1024B00010B56FF00400FEF720FA2E4800682E4990
:1024C000B0FBF1F02D4908700846007800EB4001A0
:1024D000C1EBC0104FF6FF7101EAC0002849088027
:1024E00010BD0146254A12784A434FF0E0235A6155
:1024F00000229A611A46126942F001021A6100BF75
:102500004FF0E022106900F001021AB100F48032AD
:10251000002AF5D04FF0E022126922F001024FF0BC
:10252000E0231A6100229A6170470146144A12881A
:102530004A434FF0E0235A6100229A611A46126919
:1025400042F001021A6100BF4FF0E022106900F072
:1025500001021AB100F48032002AF5D04FF0E022D7
:10256000126922F001024FF0E0231A6100229A6101
:10257000704700000400002000127A002C000020A8
:102580002E000020014600BF704700BF7E4A12881F
:1025900002F04002002AF9D0C2B27B4B1B1D1A8008
:1025A000704710B586B00446012144F20400FEF7DE
:1025B00009FE4FF40070ADF8140003208DF81600EA
:1025C00018208DF8170005A97048FEF73FFB4FF45F
:1025D0008060ADF8140004208DF8170005A96B4841
:1025E000FEF734FB25208DF8000003208DF8010054
:1025F0008DF8020001208DF803006846FEF733F9DC
:1026000001940020ADF80800ADF80A00ADF80C0008
:10261000ADF810000C20ADF80E0001A95A48FFF7E4
:1026200086FD012240F225515748FFF718FE01218F
:102630005548FFF708FE06B010BD10B540F2255111
:102640005148FFF7F1FE10B34F48FFF76DFEC4B2DB
:102650004F48008800F40040C8B94D48008800F495
:10266000804060B10A2C03D000204949088020E056
:102670004748008840F400404549088019E00D2C87
:1026800006D14348008840F480404149088010E06A
:102690003F480088C0F30D003E490C543C48008878
:1026A000401C3B49088008460088C72801DD0020FF
:1026B000088010BD70B504460D4600212046FEF787
:1026C00008FA29462046FEF719FA01212046FEF7AE
:1026D00000FA70BD0FB438B505A800902E48009AD6
:1026E000049907F0BFFE00200090002400BF2A4894
:1026F000005D00B90DE02848005D2349091D0880F0
:1027000000BF2148008800F040000028F9D0641C78
:10271000EDE700BF00201C49091D088000BF1A48D2
:10272000008800F040000028F9D038BC5DF814FBA8
:1027300030B50146002200BF02E000208854521C40
:10274000C82AFADB0020124B18801CE010480088D1
:1027500000F40040B0B10E4C2488C4F30D030020F7
:102760000AE00C4C245C0C5400BF074C248804F095
:102770004004002CF9D0401C9842F2DB0024044DA8
:102780002C8030BD00BFE1E7003801400008014067
:1027900034000020681D0020A01C002010B5044655
:1027A00044B10021BA48FFF735FC0121B848FFF7D2
:1027B0009DF903E00021B648FFF798F910BD10B568
:1027C00040F22551B348FFF72FFE08B3B148FFF799
:1027D000ABFDC4B2B0480088B0F5806F12DA0021BA
:1027E000AB48FFF717FCAC48008810B90120FFF791
:1027F000D5FFA94801880088401CA74A1080A74837
:10280000445405E0A448008840F40040A2490880F0
:1028100010BD7FB505460C4601210420FEF7DFFC04
:10282000ADF80450ADF800400020ADF80600ADF85A
:10283000020069469648FEF7FDFD012211469448C4
:10284000FFF76FF91E208DF80C0001208DF80D00A8
:1028500002208DF80E0001208DF80F0003A8FEF76E
:1028600002F87FBD70B58CB006460C4615460121B6
:102870000846FEF79AFC3046FEF75EF80194029592
:1028800010200390002004900590802006900020E6
:102890000790089009904FF480500A9000200B9008
:1028A00001A93046FEF7EAF80CB070BD10B586B04D
:1028B000044601210420FEF785FC01214804FEF7AF
:1028C0008EFC7448FFF7F0FB0420ADF810000320E5
:1028D0008DF8120018208DF8130004A97048FEF737
:1028E000B5F90820ADF8100004208DF8130004A9F4
:1028F0006B48FEF7ABF900940020ADF80400ADF88A
:102900000600ADF80800ADF80C000C20ADF80A0088
:1029100069466048FFF70BFC012280215D48FFF704
:10292000C3FC604A5B49091D5F48FFF79BFF01211B
:102930005848FFF788FC012240F225515548FFF71F
:102940008EFC26208DF8140002208DF8150003203F
:102950008DF8160001208DF8170005A8FDF783FFFC
:1029600041F61F4140F2E730FFF753FF00204A498C
:102970000880FFF713FF06B010BD0FB438B505A8E7
:1029800000904848009A049907F06CFD00200090E0
:1029900000BF4048008800F040000028F9D0002423
:1029A00000BF4048005D0A2800D10DE03D48005DB1
:1029B0003849091D088000BF3648008800F04000F3
:1029C0000028F9D0641CECE700BF00203149091D44
:1029D000088000BF2F48008800F040000028F9D090
:1029E00038BC5DF814FB10B501212948FFF747FBFF
:1029F00060B12948008840F400402749088001213F
:102A00002348FFF74DFB0020FFF7C8FE10BD70B54F
:102A100004460D4600212046FEF75BF82946204675
:102A2000FEF76CF801212046FEF753F870BD70B533
:102A300004461426002500BF02E0002060556D1CEE
:102A4000642DFADB1FE00A20FFF76FFD12480088B3
:102A500000F40040B0B1104A1288C2F30D0100200A
:102A60000AE00E4A125C225400BF0A4A128802F0A1
:102A70004002002AF9D0401C8842F2DB0022064BBB
:102A80001A8070BD00BF701E061EDCD100BFF8E7C3
:102A900000080040004400403600002030220020A2
:102AA00000080140301E00208000024010B504469E
:102AB0004FF48071FE48FEF778F94FF40071FC483E
:102AC000FEF773F92146FB48FEF776F98021F848B6
:102AD000FEF76BF98021F648FEF765F94FF40071B7
:102AE000F348FEF760F910BD10B504464FF480714D
:102AF000EF48FEF758F94FF40071ED48FEF755F92D
:102B00002146EC48FEF758F98021E948FEF74DF9D7
:102B10008021E748FEF747F94FF40071E448FEF7DB
:102B200042F910BD10B54FF08830E2490860091D28
:102B300008600020DF490C3108608915DC48FEF789
:102B400032F94FF40071DA48FEF72FF94021D848E6
:102B5000FEF72BF9D848808848F68911884202D1BF
:102B60000220FFF7BEFCD348FEF70CF904464021D3
:102B7000CF48FEF718F94FF40071CD48FEF713F96E
:102B80004FF03330CB490860091D08604FF6FF70E5
:102B9000C8490C310860204610BD70B504460D468A
:102BA0002046FFF783FF4FF48071C148FEF7FBF822
:102BB0004FF40071BE48FEF7F8F82946BD48FEF70D
:102BC000FBF88021BA48FEF7F0F88021B848FEF7FC
:102BD000EAF84FF40071B648FEF7E5F870BD10B59D
:102BE00004462046FFF762FFFFF79CFF10BD10B5BB
:102BF000B1490889FFF75AFF10BD10B504464FF4DC
:102C00008071AB48FEF7CFF84FF40071A848FEF78B
:102C1000CCF82146A748FEF7CFF88021A448FEF75C
:102C2000C4F88021A248FEF7BEF84FF40071A04816
:102C3000FEF7B9F810BD30B5014601F01F04C1F32D
:102C40004513CA0AE50205EB43151544A8B230BD89
:102C500070B504460D469848808849F24131884253
:102C600005D09548808845F21031884275D1924947
:102C70004889FFF71BFF4FF480718D48FEF793F8EA
:102C80004FF400718A48FEF790F821128948FEF748
:102C900093F880218648FEF788F880218448FEF763
:102CA00082F84FF400718248FEF77DF84FF480718E
:102CB0007F48FEF778F84FF400717D48FEF775F80D
:102CC000E1B27C48FEF778F880217948FEF76DF88C
:102CD00080217748FEF767F84FF400717448FEF7DB
:102CE00062F875498889FFF7E1FE4FF480717048FA
:102CF000FEF759F84FF400716D48FEF756F82912A7
:102D00006C48FEF759F880216948FEF74EF880219B
:102D10006748FEF748F84FF400716548FEF743F83E
:102D20004FF480716248FEF73EF84FF4007160483E
:102D3000FEF73BF8E9B25F48FEF73EF880215C48B9
:102D4000FEF733F880215A48FEF72DF84FF4007152
:102D50005748FEF728F828E1FFE75748808846F6ED
:102D6000040188427ED154488079012804D1524818
:102D70000088401E001B84B24F494889FFF796FE29
:102D80004FF480714A48FEF70EF84FF4007148483E
:102D9000FEF70BF821124748FEF70EF88021444851
:102DA000FEF703F880214248FDF7FDFF4FF4007164
:102DB0003F48FDF7F8FF4FF480713D48FDF7F3FF02
:102DC0004FF400713A48FDF7F0FFE1B23948FDF7E2
:102DD000F3FF80213648FDF7E8FF80213448FDF7F6
:102DE000E2FF4FF400713248FDF7DDFF3249888978
:102DF000FFF75CFE4FF480712D48FDF7D4FF4FF4D0
:102E000000712B48FDF7D1FF29122A48FDF7D4FFA6
:102E100080212748FDF7C9FF80212548FDF7C3FF22
:102E20004FF400712248FDF7BEFF4FF48071204837
:102E3000FDF7B9FF4FF400711D48FDF7B6FFE9B289
:102E40001C48FDF7B9FF80211948FDF7AEFF80212E
:102E50001748FDF7A8FF4FF400711548FDF7A3FFD1
:102E6000A3E0FFE71448808845F2105188427CD1E6
:102E700011494889FFF71AFE4FF480710C48FDF79D
:102E800092FF4FF400710A48FDF78FFF21120948A5
:102E9000FDF792FF80210648FDF787FF8021044857
:102EA000FDF781FF4FF400710148FDF77CFF05E05D
:102EB00000100140000C014030260020F8494989EB
:102EC000491C88B2FFF7F2FD4FF48071F548FDF719
:102ED0006AFF4FF40071F348FDF767FFE1B2F24873
:102EE000FDF76AFF8021EF48FDF75FFF8021ED4885
:102EF000FDF759FF4FF40071EA48FDF754FFE84928
:102F00008889FFF7D3FD4FF48071E648FDF74BFF4A
:102F10004FF40071E348FDF748FF2912E248FDF73E
:102F20004BFF8021DF48FDF740FF8021DD48FDF7A2
:102F30003AFF4FF40071DB48FDF735FFD849898926
:102F4000491C88B2FFF7B2FD4FF48071D548FDF7F8
:102F50002AFF4FF40071D348FDF727FFE9B2D248AA
:102F6000FDF72AFF8021CF4800E00BE0FDF71DFFB1
:102F70008021CC48FDF717FF4FF40071C948FDF7D9
:102F800012FF12E0C6488079012804D1C4480088A5
:102F9000401E001B84B2C24948892146FFF7FDFD4F
:102FA000BF4988892946FFF7F8FD70BD2DE9F0413A
:102FB00005460E46BA480088A84203DDB848408856
:102FC000B04202DC0020BDE8F08131462846FFF720
:102FD0003FFEB348808849F2413188420BD0B04867
:102FE000808846F60401884205D0AD48808845F2C5
:102FF0001031884203D12E20FFF758FD0DE0A8487C
:10300000808845F21051884204D14FF43850FFF7C0
:103010004DFD02E02220FFF749FD4FF08830A24924
:103020000860091D08604FF6FF709F490C31086069
:1030300089159C48FDF7B7FE4FF400719948FDF7DC
:10304000B4FE40219748FDF7B0FE0120FFF749FA92
:1030500040219448FDF7A7FE40219248FDF7A5FEC8
:103060000120FFF73EFA9048FDF78CFE0446402110
:103070008C48FDF798FE8A48808849F241318842A1
:103080000BD08748808845F21031884205D08448AB
:10309000808845F21051884211D140218148FDF7C6
:1030A00084FE8148FDF76EFE804640217D48FDF795
:1030B0007AFEE7B24FF6FF7000EA072711E0784882
:1030C000808846F6040188420BD140217548FDF7FF
:1030D0006CFE40217348FDF766FE7348FDF752FE13
:1030E00004464FF400716F48FDF75DFE4FF033303A
:1030F0006D490860091D08604FF6FF706A490C3180
:1031000008606748808849F22531884216D06448B3
:10311000808844F23551884210D061488088091F68
:1031200088420BD05E48808848F68911884205D0D5
:103130005B4880884BF20551884201D1204642E726
:103140005748808849F2413188420BD054488088E2
:1031500045F21031884205D05148808845F210511F
:10316000884207D1E012C002B91240EA411040EA99
:10317000E82028E72046FFF75EFD24E710B5484821
:10318000808849F2413188420BD04548808846F614
:103190000401884205D04248808845F210318842B7
:1031A00003D12920FFF782FC0FE03D48808845F2DB
:1031B0001051884204D14FF42450FFF777FC04E00B
:1031C00040F273110720FFF7E8FC10BD10B534483A
:1031D000808849F2413188420BD03148808846F6D8
:1031E0000401884205D02E48808845F2103188427B
:1031F00003D12820FFF75AFC0EE02948808845F2C9
:103200001051884204D14FF42050FFF74FFC03E0E7
:1032100000210720FFF7C1FC10BD2DE9F041054654
:10322000002400271E48807901281ED11C48808870
:1032300046F60401884218D0082D15D2DFE805F0C3
:103240000406080A0C0E101206250DE007250BE0F7
:10325000042509E0052507E0012505E0002503E038
:10326000032501E0022500BF00BF0D48808849F218
:103270004131884211D00A48808846F604018842CC
:103280000BD00748808845F21031884205D00448A9
:10329000808845F2105188427ED1082D23D205E066
:1032A0003026002000100140000C0140DFE805F04E
:1032B0000406090C0F12151800BF14E044F0800436
:1032C00011E044F040040EE044F0C0040BE044F090
:1032D000200408E044F0600405E044F0A00402E0AB
:1032E00044F0E00400BF00BFFE48808845F2105162
:1032F000884202D14FF4585700E03627F9488088B9
:1033000045F21031884207D0F648808845F21051C6
:10331000884201D044F00804F248808846F604014F
:10332000884201D144F0020421463846FFF735FCBB
:1033300004F0200068B1EB480088EA4949888842D7
:1033400014DAE84806884088E6490880084646803E
:103350000CE0E4480088E3494988884206DDE148FA
:1033600006884088DF49088008464680DD48808816
:1033700045F2105188427CD1DA494889FFF796FB23
:103380004FF48071D848FDF70EFD4FF40071D64818
:10339000FDF70BFD002100E0FBE1D448FDF70CFD3B
:1033A0008021D148FDF701FD8021CF48FDF7FBFCCE
:1033B0004FF40071CC48FDF7F6FCCA494989491C15
:1033C00088B2FFF773FB4FF48071C748FDF7EBFC41
:1033D0004FF40071C448FDF7E8FC0021C348FDF735
:1033E000EBFC8021C048FDF7E0FC8021BE48FDF7E2
:1033F000DAFC4FF40071BC48FDF7D5FCB9494989A6
:10340000891C88B2FFF752FB4FF48071B648FDF774
:10341000CAFC4FF40071B448FDF7C7FCB1480088FE
:10342000401EC0F30F21B148FDF7C6FC8021AE4815
:10343000FDF7BBFC8021AC48FDF7B5FC4FF40071F3
:10344000A948FDF7B0FCA7494989C91C88B2FFF714
:103450002DFB4FF48071A448FDF7A5FC4FF40071DB
:10346000A148FDF7A2FC9F480078401EC1B29F48CA
:1034700000E098E0FDF7A0FC80219B48FDF795FC5B
:1034800080219948FDF78FFC4FF400719648FDF7B5
:103490008AFC94498889FFF709FB4FF480719248B0
:1034A000FDF781FC4FF400718F48FDF77EFC002191
:1034B0008E48FDF781FC80218B48FDF776FC80214A
:1034C0008948FDF770FC4FF400718748FDF76BFCED
:1034D00084498989491C88B2FFF7E8FA4FF4807162
:1034E0008148FDF760FC4FF400717F48FDF75DFCFB
:1034F00000217E48FDF760FC80217B48FDF755FCEC
:1035000080217948FDF74FFC4FF400717648FDF7B4
:103510004AFC74498989891C88B2FFF7C7FA4FF4BD
:1035200080717148FDF73FFC4FF400716E48FDF764
:103530003CFC6C484088401EC0F30F216B48FDF7EF
:103540003BFC80216848FDF730FC80216648FDF790
:103550002AFC4FF400716448FDF725FC6149898914
:10356000C91C88B2FFF7A2FA4FF480715E48FDF7DC
:103570001AFC4FF400715C48FDF717FC594880783D
:10358000401EC1B25948FDF717FC80215648FDF78F
:103590000CFC80215448FDF706FC4FF400715248A2
:1035A000FDF701FC27E14F494889FFF77FFA4FF407
:1035B00080714D48FDF7F7FB4FF400714A48FDF765
:1035C000F4FB00214948FDF7F7FB80214648FDF751
:1035D000ECFB80214448FDF7E6FB4FF400714248C4
:1035E000FDF7E1FB4FF480713F48FDF7DCFB4FF442
:1035F00000713D48FDF7D9FB00213C48FDF7DCFB9D
:1036000080213948FDF7D1FB80213748FDF7CBFBFE
:103610004FF400713448FDF7C6FB4FF48071324817
:10362000FDF7C1FB4FF400712F48FDF7BEFB2D489D
:103630000088401EC0F30F212C48FDF7BDFB802100
:103640002948FDF7B2FB80212748FDF7ACFB4FF47A
:1036500000712548FDF7A7FB4FF480712248FDF764
:10366000A2FB4FF400712048FDF79FFB1D48007836
:10367000401EC1B21D48FDF79FFB80211A48FDF78F
:1036800094FB80211848FDF78EFB4FF4007116481B
:10369000FDF789FB13498889FFF708FA4FF4807119
:1036A0001148FDF780FB4FF400710F48FDF77DFBDB
:1036B00000210E48FDF780FB80210B48FDF775FBCC
:1036C00080210948FDF76FFB4FF400710648FDF7B4
:1036D0006AFB4FF480710448FDF765FB4FF40071FD
:1036E000014805E03026002000100140000C014098
:1036F000FDF75BFB0021FE48FDF75EFB8021FD48E6
:10370000FDF753FB8021FB48FDF74DFB4FF40071A3
:10371000F848FDF748FB4FF48071F648FDF743FB8E
:103720004FF40071F348FDF740FBF3484088401E1A
:10373000C0F30F21EE48FDF73FFB8021ED48FDF778
:1037400034FB8021EB48FDF72EFB4FF40071E94874
:10375000FDF729FB4FF48071E648FDF724FB4FF499
:103760000071E448FDF721FBE3488078401EC1B2B8
:10377000DF48FDF721FB8021DE48FDF716FB8021A5
:10378000DC48FDF710FB4FF40071DA48FDF70BFB46
:1037900031E0082D1CD2DFE805F004070A0D0F12F6
:1037A000151844F0300413E044F0100410E044F025
:1037B00020040DE000BF0BE044F0380408E044F0C2
:1037C000280405E044F0180402E044F0080400BFB7
:1037D00000BFC948808848F68911884204D1112762
:1037E00046F24000044302E0032744F4805421469B
:1037F0003846FFF7D2F9BDE8F08170B504460D46B2
:1038000029462046FFF724FAFFF7F1F94FF48071BB
:10381000B848FDF7C8FA4FF40071B648FDF7C5FA8D
:10382000B6480188B248FDF7C7FA8021B148FDF7D4
:10383000BCFA8021AF48FDF7B6FA4FF40071AD48ED
:10384000FDF7B1FA70BD70B504460D461646AA489C
:10385000808849F24131884205D0A748808845F2E6
:103860001031884275D1A4494889FFF71FF94FF4F8
:103870008071A048FDF797FA4FF400719D48FDF75D
:1038800094FA21129A48FDF797FA80219948FDF79A
:103890008CFA80219748FDF786FA4FF4007195481D
:1038A000FDF781FA4FF480719248FDF77CFA4FF4EE
:1038B00000719048FDF779FAE1B28D48FDF77CFA86
:1038C00080218C48FDF771FA80218A48FDF76BFA58
:1038D0004FF400718748FDF766FA87498889FFF73A
:1038E000E5F84FF480718348FDF75DFA4FF40071FD
:1038F0008048FDF75AFA29127D48FDF75DFA8021CC
:103900007C48FDF752FA80217A48FDF74CFA4FF4D3
:1039100000717848FDF747FA4FF480717548FDF75C
:1039200042FA4FF400717348FDF73FFAE9B270486C
:10393000FDF742FA80216F48FDF737FA80216D4884
:10394000FDF731FA4FF400716A48FDF72CFA2CE1CB
:10395000FFE76948808845F2105188427ED1664968
:103960004889FFF7A3F84FF480716248FDF71BFA0E
:103970004FF400715F48FDF718FA21125C48FDF71B
:103980001BFA80215B48FDF710FA80215948FDF7AA
:103990000AFA4FF400715748FDF705FA564949896C
:1039A000491C88B2FFF782F84FF480715148FDF747
:1039B000FAF94FF400714F48FDF7F7F9E1B24C48BE
:1039C000FDF7FAF980214B48FDF7EFF980214948CE
:1039D000FDF7E9F94FF400714648FDF7E4F946496F
:1039E0008889FFF763F84FF480714248FDF7DBF9EF
:1039F0004FF400713F48FDF7D8F929123C48FDF714
:103A0000DBF980213B48FDF7D0F980213948FDF7EB
:103A1000CAF94FF400713748FDF7C5F9364989896D
:103A2000491C88B2FFF742F84FF480713148FDF726
:103A3000BAF94FF400712F48FDF7B7F9E9B22C48F5
:103A4000FDF7BAF980212B48FDF7AFF9802129480D
:103A5000FDF7A9F94FF40071264800E002E0FDF7F8
:103A6000A2F9A2E02448808846F6040188427CD16D
:103A700021488079012804D11F480088401E001B7E
:103A800084B21D494889FFF711F84FF48071194835
:103A9000FDF789F94FF400711648FDF786F92112F8
:103AA0001348FDF789F980211248FDF77EF980213E
:103AB0001048FDF778F94FF400710E48FDF773F9DF
:103AC0004FF480710B48FDF76EF94FF4007109480F
:103AD000FDF76BF9E1B20648FDF76EF98021054864
:103AE000FDF763F980210348FDF75DF908E0000068
:103AF000000C01400010014030260020380000205A
:103B00004FF40071FD48FDF74EF9FD498889FEF735
:103B1000CDFF4FF48071F948FDF745F94FF400717E
:103B2000F648FDF742F92912F648FDF745F98021DC
:103B3000F248FDF73AF98021F048FDF734F94FF4E7
:103B40000071EE48FDF72FF94FF48071EB48FDF757
:103B50002AF94FF40071E948FDF727F9E9B2E9487D
:103B6000FDF72AF98021E54800E00BE0FDF71DF99B
:103B70008021E248FDF717F94FF40071DF48FDF7A7
:103B800012F912E0DE488079012804D1DC4800886F
:103B9000401E001B84B2DA4948892146FEF7FDFF2A
:103BA000D74988892946FEF7F8FF4FF48071D3483A
:103BB000FDF7FBF84FF40071D048FDF7F6F8D04858
:103BC0000189D048FDF7F8F88021CC48FDF7EDF8E1
:103BD0008021CA48FDF7E7F84FF40071C748FDF7A8
:103BE000E2F84FF48071C548FDF7DDF84FF400713D
:103BF000C248FDF7DAF83146C248FDF7DDF880210A
:103C0000BE48FDF7D2F88021BC48FDF7CCF84FF450
:103C10000071BA48FDF7C7F870BD10B50446002C16
:103C200060D1B7498871F02008804FF4A0704880B7
:103C30000846808849F2413188420BD0B0488088DC
:103C400046F60401884205D0AD48808845F210311F
:103C500088421AD12C20AA4908812A2048812B2089
:103C600088810846808846F60401884205D0A44829
:103C7000808845F21031884206D14FF4A070A049E7
:103C800008804FF4F070488095E09D48808848F6A1
:103C90008911884207D12220994908814E20488104
:103CA0004F20888187E09648808845F210518842ED
:103CB00010D14FF43050924908814FF42850488178
:103CC0004FF42C5088814FF4F07008804FF4487006
:103CD000488070E022208A490881202048812120E4
:103CE000888168E00120864988714FF4A0700880BF
:103CF000F02048800846808849F24131884205D04A
:103D00007F48808845F21031884207D12C207C49B9
:103D100008812A2048812B20888139E078488088D2
:103D200046F60401884207D12C20754908812B20D2
:103D300048812A2088812BE07148808848F68911C3
:103D4000884207D122206E4908814F2048814E20A9
:103D500088811DE06A48808845F21051884210D160
:103D60004FF43050664908814FF4285048814FF491
:103D70002C5088814FF4487008804FF4F0704880D0
:103D800006E022205E490881212048812020888188
:103D90005B48808846F60401884205D058488088F0
:103DA00045F21031884206D14FF4F0705449088032
:103DB0004FF4A07048800020FFF72FFA10BD2DE9C6
:103DC000FF5F04460D4616461F46A019401E86B2E8
:103DD000E819401E87B24A48808849F2413188423A
:103DE0000BD04748808845F21031884205D04448BE
:103DF000808846F6040188427ED141494889FEF711
:103E000055FE4FF480713D48FCF7CDFF4FF4007133
:103E10003A48FCF7CAFF21123A48FCF7CDFF80214F
:103E20003648FCF7C2FF80213448FCF7BCFF4FF452
:103E300000713248FCF7B7FF4FF480712F48FCF750
:103E4000B2FF4FF400712D48FCF7AFFFE1B22D48EF
:103E5000FCF7B2FF80212948FCF7A7FF8021274803
:103E6000FCF7A1FF4FF400712448FCF79CFF4FF4CE
:103E700080712248FCF797FF4FF400711F48FCF750
:103E800094FF31121F48FCF797FF80211B48FCF775
:103E90008CFF80211948FCF786FF4FF4007117480A
:103EA000FCF781FF4FF480711448FCF77CFF4FF45E
:103EB00000711248FCF779FFF1B21248FCF77CFF61
:103EC00080210E48FCF771FF80210C48FCF76BFF46
:103ED0004FF400710948FCF766FF09498889FEF72D
:103EE000E5FD4FF480710548FCF75DFF4FF400716C
:103EF0000248FCF75AFF07E069E0000000100140AB
:103F000030260020000C01402912FE48FCF754FF27
:103F10008021FD48FCF749FF8021FB48FCF743FF67
:103F20004FF40071F848FCF73EFF4FF48071F648FB
:103F3000FCF739FF4FF40071F348FCF736FFE9B2A4
:103F4000F048FCF739FF8021EF48FCF72EFF802175
:103F5000ED48FCF728FF4FF40071EB48FCF723FF16
:103F60004FF48071E848FCF71EFF4FF40071E648FB
:103F7000FCF71BFF3912E348FCF71EFF8021E248E3
:103F8000FCF713FF8021E048FCF70DFF4FF40071B0
:103F9000DD48FCF708FF4FF48071DB48FCF703FFB6
:103FA0004FF40071D848FCF700FFF9B2D548FCF790
:103FB00003FF8021D448FCF7F8FE8021D248FCF7AB
:103FC000F2FE4FF40071D048FCF7EDFE53E1CF480C
:103FD000808845F2105188427DD1CC494889FEF74E
:103FE00065FD4FF48071C848FCF7DDFE4FF40071A9
:103FF000C548FCF7DAFE2112C248FCF7DDFE80213D
:10400000C148FCF7D2FE8021BF48FCF7CCFE4FF43C
:104010000071BD48FCF7C7FEBC494989491C88B2FC
:10402000FEF744FD4FF48071B748FCF7BCFE4FF437
:104030000071B548FCF7B9FEE1B2B248FCF7BCFE2E
:104040008021B148FCF7B1FE8021AF48FCF7ABFE00
:104050004FF40071AC48FCF7A6FEAC494989891CB5
:1040600088B2FEF723FD4FF48071A748FCF79BFE52
:104070004FF40071A448FCF798FE3112A148FCF7F8
:104080009BFE8021A048FCF790FE80219E48FCF713
:104090008AFE4FF400719C48FCF785FE9B494989D4
:1040A000C91C88B2FEF702FD4FF480719648FCF7F8
:1040B0007AFE4FF400719448FCF777FEF1B2914814
:1040C000FCF77AFE80219048FCF76FFE80218E4835
:1040D000FCF769FE00E087E04FF400718A48FCF7C6
:1040E00062FE8A498889FEF7E1FC4FF480718648B8
:1040F000FCF759FE4FF400718348FCF756FE291275
:104100008048FCF759FE80217F48FCF74EFE802155
:104110007D48FCF748FE4FF400717B48FCF743FEF6
:104120007A498989491C88B2FEF7C0FC4FF4807136
:104130007548FCF738FE4FF400717348FCF735FE04
:10414000E9B27048FCF738FE80216F48FCF72DFE7D
:1041500080216D48FCF727FE4FF400716A48FCF798
:1041600022FE6A498989891C88B2FEF79FFC4FF4B8
:1041700080716548FCF717FE4FF400716248FCF748
:1041800014FE39125F48FCF717FE80215E48FCF7E9
:104190000CFE80215C48FCF706FE4FF400715A4883
:1041A000FCF701FE59498989C91C88B2FEF77EFCDB
:1041B0004FF480715448FCF7F6FD4FF400715248FB
:1041C000FCF7F3FDF9B24F48FCF7F6FD80214E48AD
:1041D000FCF7EBFD80214C48FCF7E5FD4FF4007146
:1041E0004948FCF7E0FD46E04848807901280ED1B7
:1041F000A846B94645480088801B401E80B2009002
:1042000042480088001B401E1FFA80FB03E0A046C6
:10421000B1460095BB463D48808848F689118842E2
:104220000DD14FF0440A4420039048EA09201FFAB8
:1042300080F8C146452002904620019007E04FF0EB
:10424000500A512003905220029053200190414681
:104250005046FEF7A2FC49460398FEF79EFC0099E3
:104260000298FEF79AFC59460198FEF796FC2946FB
:104270002046FEF7EDFCBDE8FF9F70B50446002622
:1042800022480588408845432048808846F6040136
:10429000884216D11D488079012812D100201B497F
:1042A00088712A2048812B20888100210846FEF74A
:1042B000CFFC0120154988712B2048812A20888154
:1042C00003E000210846FEF7C3FCFEF790FC002641
:1042D00022E04FF480710C48FCF765FD4FF400714B
:1042E0000948FCF762FD21460648FCF765FD802180
:1042F0000548FCF75AFD80210348FCF754FD4FF4B4
:10430000007105E0000C0140001001403026002043
:10431000FE48FCF748FD761CAE42DAD370BD08B506
:1043200001211920FCF74EFF0121F948FCF75FFD40
:104330004FF4F860ADF8000010208DF80300032062
:104340008DF802006946F148FCF780FC4FF4F861F3
:10435000EE48FCF728FD4FF6FF70ADF80000694607
:10436000EC48FCF773FC4FF6FF71EA48FCF71BFDC5
:104370003220FEF7DAF801210020FEF70EFC322091
:10438000FEF7D3F80020FEF72AFCE34988800846B0
:104390008088FF280ADB084680884FF6FF71884234
:1043A00004D0DD488088B0F5134F7CD1D320FEF7D0
:1043B0007DFBFEF7B7FBFEF7B5FBFEF7B3FBD64977
:1043C0008880084680884FF6FF7101EA0020D249B4
:1043D0008880FEF7A7FBD04989880843CE498880AA
:1043E0000846808849F2413188426CD0BF20FEF7F0
:1043F0005DFBFEF797FBFEF795FBFEF793FBFEF7E1
:1044000091FBC5498880084680884FF6FF7101EA14
:104410000020C1498880FEF785FBBF498988084391
:10442000BD4988800846808846F6040188424AD003
:10443000D420FEF73BFBFEF775FBFEF773FBFEF7A0
:1044400071FBB5498880084680884FF6FF7101EA04
:104450000020B1498880FEF765FBAF498988084391
:10446000AD4988800846808845F2103188422AD0BC
:104470004FF45A40FEF71AFBFEF754FB4FF45B4033
:10448000FEF714FBFEF74EFBA349888008468088A0
:104490004FF6FF7101EA00209F4988804FF45C408D
:1044A000FEF704FB00E00EE0FEF73CFB9A4989882A
:1044B00008439949888008468088B0F5004F02D1AA
:1044C00045F2105088809448818894A005F0DCFF64
:1044D0009148808849F2413188427CD1CF20FEF753
:1044E000E5FA0020FEF700FBC120FEF7FDFA3020C0
:1044F000FEF7FAFAED20FEF7D9FA6420FEF7F4FA97
:104500000320FEF7F1FA1220FEF7EEFA8120FEF703
:10451000EBFAE820FEF7CAFA8520FEF7E5FA10204C
:10452000FEF7E2FA7A20FEF7DFFACB20FEF7BEFABA
:104530003920FEF7D9FA2C20FEF7D6FA0020FEF734
:10454000D3FA3420FEF7D0FA0220FEF7CDFAF72096
:10455000FEF7ACFA2020FEF7C7FAEA20FEF7A6FA2B
:104560000020FEF7C1FA0020FEF7BEFAC020FEF7D9
:104570009DFA1B20FEF7B8FAC120FEF797FA01203A
:10458000FEF7B2FAC520FEF791FA3020FEF7ACFA3A
:104590003020FEF7A9FAC720FEF788FAB720FEF709
:1045A000A3FA3620FEF782FA4820FEF79DFA3A2059
:1045B000FEF77CFA5520FEF797FAB120FEF776FA5F
:1045C0000020FEF791FA1A20FEF78EFAB620FEF7C9
:1045D0006DFA0A2000E0A9E0FEF786FAA220FEF7B5
:1045E00083FAF220FEF762FA0020FEF77DFA262019
:1045F000FEF75CFA0120FEF777FAE020FEF756FAA4
:104600000F20FEF771FA2A20FEF76EFA2820FEF737
:104610006BFA0820FEF768FA0E20FEF765FA08200C
:10462000FEF762FA5420FEF75FFAA920FEF75CFA63
:104630004320FEF759FA0A20FEF756FA0F20FEF73C
:1046400053FA0020FEF750FA0020FEF74DFA002042
:10465000FEF74AFA0020FEF747FAE120FEF726FAB5
:104660000020FEF741FA1520FEF73EFA1720FEF76C
:104670003BFA0720FEF738FA1120FEF735FA06203C
:10468000FEF732FA2B20FEF72FFA5620FEF72CFA0F
:104690003C20FEF729FA0520FEF726FA1020FEF747
:1046A00023FA0F20FEF720FA3F20FEF71DFA3F20E5
:1046B000FEF71AFA0F20FEF717FA2B20FEF7F6F98D
:1046C0000020FEF711FA0020FEF70EFA0120FEF797
:1046D0000BFA3F20FEF708FA2A20FEF7E7F9002040
:1046E000FEF702FA0020FEF7FFF90020FEF7FCF9C2
:1046F000EF20FEF7F9F91120FEF7D8F97820FDF741
:1047000014FF2920FEF7D2F903F00CBB0010014082
:1047100000023000000C014030260020204C4344B1
:104720002049443A25780D0A00000000FE488088A0
:1047300046F6040188427CD11120FEF7B7F9142017
:10474000FDF7F3FED020FEF7B1F90720FEF7CCF914
:104750004220FEF7C9F91D20FEF7C6F9D120FEF769
:10476000A5F90020FEF7C0F91A20FEF7BDF90920CF
:10477000FEF7BAF9D220FEF799F90120FEF7B4F955
:104780002220FEF7B1F9C020FEF790F91020FEF7C5
:10479000ABF93B20FEF7A8F90020FEF7A5F90220AF
:1047A000FEF7A2F91120FEF79FF9C520FEF77EF96A
:1047B0000320FEF799F9C820FEF778F90020FEF7EC
:1047C00093F92520FEF790F92120FEF78DF90520B9
:1047D000FEF78AF90020FEF787F90A20FEF784F930
:1047E0006520FEF781F92520FEF77EF97720FEF798
:1047F0007BF95020FEF778F90F20FEF775F90020BD
:10480000FEF772F9F820FEF751F90120FEF76CF976
:10481000FE20FEF74BF90020FEF766F90220FEF7B6
:1048200063F92020FEF742F93620FEF73FF9082011
:1048300000E02CE0FEF758F93A20FEF737F9552052
:10484000FEF752F92B20FEF731F90020FEF74CF964
:104850000020FEF749F90120FEF746F93F20FEF758
:1048600043F92A20FEF722F90020FEF73DF9002047
:10487000FEF73AF90120FEF737F9DF20FEF734F9A9
:104880007820FDF752FE2920FEF710F93CE7A648F4
:10489000808845F21031884240F07C87ED20FEF799
:1048A00005F90120FEF720F9FE20FEF71DF9EE20A4
:1048B000FEF7FCF8DE20FEF717F92120FEF714F9C9
:1048C000F120FEF7F3F80120FEF70EF9DF20FEF7E6
:1048D000EDF81020FEF708F9C420FEF7E7F88F2066
:1048E000FEF702F9C620FEF7E1F80020FEF7FCF81B
:1048F000E220FEF7F9F8E220FEF7F6F8E220FEF7F4
:10490000F3F8BF20FEF7D2F8AA20FEF7EDF8B020AA
:10491000FEF7CCF80D20FEF7E7F80020FEF7E4F8EC
:104920000D20FEF7E1F80020FEF7DEF81120FEF77B
:10493000DBF80020FEF7D8F81920FEF7D5F80020A4
:10494000FEF7D2F82120FEF7CFF80020FEF7CCF8D2
:104950002D20FEF7C9F80020FEF7C6F83D20FEF72F
:10496000C3F80020FEF7C0F85D20FEF7BDF8002078
:10497000FEF7BAF85D20FEF7B7F80020FEF7B4F8AE
:10498000B120FEF793F88020FEF7AEF80020FEF786
:10499000ABF88B20FEF7A8F80020FEF7A5F89620CC
:1049A000FEF7A2F80020FEF79FF8B220FEF77EF88F
:1049B0000020FEF799F80020FEF796F80220FEF797
:1049C00093F80020FEF790F80320FEF78DF8002002
:1049D000FEF78AF8B320FEF769F80020FEF784F8A6
:1049E0000020FEF781F80020FEF77EF80020FEF799
:1049F0007BF80020FEF778F80020FEF775F800201D
:104A0000FEF772F80020FEF76FF80020FEF76CF852
:104A10000020FEF769F80020FEF766F80020FEF798
:104A200063F80020FEF760F80020FEF75DF8002034
:104A3000FEF75AF80020FEF757F80020FEF754F86A
:104A40000020FEF751F80020FEF74EF80020FEF798
:104A50004BF80020FEF748F80020FEF745F800204C
:104A6000FEF742F80020FEF73FF8B420FEF71EF8EC
:104A70008B20FEF739F80020FEF736F89620FEF777
:104A800033F80020FEF730F8A120FEF72DF80020C3
:104A9000FEF72AF8B520FEF709F80220FEF724F801
:104AA0000020FEF721F80320FEF71EF80020FEF795
:104AB0001BF80420FEF718F80020FEF715F8B620C2
:104AC000FDF7F4FF0020FEF70FF80020FEF70CF8CA
:104AD000B720FDF7EBFF0020FEF706F80020FEF7F9
:104AE00003F83F20FEF700F80020FDF7FDFF5E20F1
:104AF000FDF7FAFF0020FDF7F7FF6420FDF7F4FF54
:104B00000020FDF7F1FF8C20FDF7EEFF0020FDF700
:104B1000EBFFAC20FDF7E8FF0020FDF7E5FFDC2010
:104B2000FDF7E2FF002001E030260020FDF7DCFF6A
:104B30007020FDF7D9FF0020FDF7D6FF9020FDF78C
:104B4000D3FF0020FDF7D0FFEB20FDF7CDFF0020C5
:104B5000FDF7CAFFDC20FDF7C7FF0020FDF7C4FF0B
:104B6000B820FDF7A3FF0020FDF7BEFF0020FDF7F2
:104B7000BBFF0020FDF7B8FF0020FDF7B5FF0020C8
:104B8000FDF7B2FF0020FDF7AFFF0020FDF7ACFFFF
:104B90000020FDF7A9FFBA20FDF788FF2420FDF7CC
:104BA000A3FF0020FDF7A0FF0020FDF79DFF0020E0
:104BB000FDF79AFFC120FDF779FF2020FDF794FF54
:104BC0000020FDF791FF5420FDF78EFF0020FDF738
:104BD0008BFFFF20FDF788FF0020FDF785FFC22037
:104BE000FDF764FF0A20FDF77FFF0020FDF77CFF43
:104BF0000420FDF779FF0020FDF776FFC320FDF7C5
:104C000055FF3C20FDF770FF0020FDF76DFF3A20B7
:104C1000FDF76AFF0020FDF767FF3920FDF764FF0D
:104C20000020FDF761FF3720FDF75EFF0020FDF754
:104C30005BFF3C20FDF758FF0020FDF755FF3620B5
:104C4000FDF752FF0020FDF74FFF3220FDF74CFF2C
:104C50000020FDF749FF2F20FDF746FF0020FDF75C
:104C600043FF2C20FDF740FF0020FDF73DFF2920EA
:104C7000FDF73AFF0020FDF737FF2620FDF734FF50
:104C80000020FDF731FF2420FDF72EFF0020FDF767
:104C90002BFF2420FDF728FF0020FDF725FF232010
:104CA000FDF722FF0020FDF71FFF3C20FDF71CFF52
:104CB0000020FDF719FF3620FDF716FF0020FDF755
:104CC00013FF3220FDF710FF0020FDF70DFF2F200E
:104CD000FDF70AFF0020FDF707FF2C20FDF704FF7A
:104CE0000020FDF701FF2920FDF7FEFE0020FDF763
:104CF000FBFE2620FDF7F8FE0020FDF7F5FE242040
:104D0000FDF7F2FE0020FDF7EFFE2420FDF7ECFE9C
:104D10000020FDF7E9FE2320FDF7E6FE0020FDF769
:104D2000E3FEC420FDF7C2FE6220FDF7DDFE002099
:104D3000FDF7DAFE0520FDF7D7FE0020FDF7D4FED3
:104D40008420FDF7D1FE0020FDF7CEFEF020FDF718
:104D5000CBFE0020FDF7C8FE1820FDF7C5FE0020A1
:104D6000FDF7C2FEA420FDF7BFFE0020FDF7BCFE4C
:104D70001820FDF7B9FE0020FDF7B6FE5020FDF724
:104D8000B3FE0020FDF7B0FE0C20FDF7ADFE0020C5
:104D9000FDF7AAFE1720FDF7A7FE0020FDF7A4FEF1
:104DA0009520FDF7A1FE0020FDF79EFEF320FDF704
:104DB0009BFE0020FDF798FEE620FDF795FE002003
:104DC000FDF792FEC520FDF771FE3220FDF78CFE47
:104DD0000020FDF789FE4420FDF786FE0020FDF748
:104DE00083FE6520FDF780FE0020FDF77DFE762026
:104DF000FDF77AFE0020FDF777FE8820FDF774FEB0
:104E00000020FDF771FEC620FDF750FE2020FDF7C3
:104E10006BFE0020FDF768FE1720FDF765FE002001
:104E2000FDF762FE0120FDF75FFE0020FDF75CFE4E
:104E3000C720FDF73BFE0020FDF756FE0020FDF7E2
:104E400053FE0020FDF750FE0020FDF74DFEC82068
:104E5000FDF72CFE0020FDF747FE0020FDF744FE85
:104E60000020FDF741FE0020FDF73EFEC920FDF7C2
:104E70001DFE0020FDF738FE0020FDF735FE002066
:104E8000FDF732FE0020FDF72FFE0020FDF72CFE7F
:104E90000020FDF729FE0020FDF726FE0020FDF78B
:104EA00023FE0020FDF720FE0020FDF71DFE002060
:104EB000FDF71AFE0020FDF717FE0020FDF714FE97
:104EC0000020FDF711FE0020FDF70EFE0020FDF78B
:104ED0000BFEE020FDF7EAFD1620FDF705FE0020A1
:104EE000FDF702FE1C20FDF7FFFD0020FDF7FCFD95
:104EF0002120FDF7F9FD0020FDF7F6FD3620FDF736
:104F0000F3FD0020FDF7F0FD4620FDF7EDFD00204C
:104F1000FDF7EAFD5220FDF7E7FD0020FDF7E4FD77
:104F20006420FDF7E1FD0020FDF7DEFD7A20FDF7AE
:104F3000DBFD0020FDF7D8FD8B20FDF7D5FD00201F
:104F4000FDF7D2FD9920FDF7CFFD0020FDF7CCFD48
:104F5000A820FDF7C9FD0020FDF7C6FDB920FDF72B
:104F6000C3FD0020FDF7C0FDC420FDF7BDFD0020FE
:104F7000FDF7BAFDCA20FDF7B7FD0020FDF7B4FD2F
:104F8000D220FDF7B1FD0020FDF7AEFDD920FDF7E1
:104F9000ABFD0020FDF7A8FDE020FDF7A5FD0020FA
:104FA000FDF7A2FDF320FDF79FFD0020FDF79CFD1E
:104FB000E120FDF77BFD1620FDF796FD0020FDF7B3
:104FC00093FD1C20FDF790FD0020FDF78DFD2220B4
:104FD000FDF78AFD0020FDF787FD3620FDF784FDF3
:104FE0000020FDF781FD4520FDF77EFD0020FDF747
:104FF0007BFD5220FDF778FD0020FDF775FD642054
:10500000FDF772FD0020FDF76FFD7A20FDF76CFDC6
:105010000020FDF769FD8B20FDF766FD0020FDF700
:1050200063FD9920FDF760FD0020FDF75DFDA820E0
:10503000FDF75AFD0020FDF757FDB920FDF754FD9F
:105040000020FDF751FDC420FDF74EFD0020FDF7C7
:105050004BFDCA20FDF748FD0020FDF745FDD2209D
:10506000FDF742FD0020FDF73FFDD820FDF73CFD98
:105070000020FDF739FDE020FDF736FD0020FDF7AB
:1050800033FDF320FDF730FD0020FDF72DFDE2207C
:10509000FDF70CFD0520FDF727FD0020FDF724FDA1
:1050A0000B20FDF721FD0020FDF71EFD1B20FDF765
:1050B0001BFD0020FDF718FD3420FDF715FD002035
:1050C000FDF712FD4420FDF70FFD0020FDF70CFD5C
:1050D0004F20FDF709FD0020FDF706FD6120FDF7DB
:1050E00003FD0020FDF700FD7920FDF7FDFC002009
:1050F000FDF7FAFC8820FDF7F7FC0020FDF7F4FC33
:105100009720FDF7F1FC0020FDF7EEFCA620FDF74F
:10511000EBFC0020FDF7E8FCB720FDF7E5FC0020E4
:10512000FDF7E2FCC220FDF7DFFC0020FDF7DCFC10
:10513000C720FDF7D9FC0020FDF7D6FCD120FDF7F4
:10514000D3FC0020FDF7D0FCD620FDF7CDFC0020DD
:10515000FDF7CAFCDD20FDF7C7FC0020FDF7C4FC0D
:10516000F320FDF7C1FC0020FDF7BEFCE320FDF7B6
:105170009DFC0520FDF7B8FC0020FDF7B5FC0A20DA
:10518000FDF7B2FC0020FDF7AFFC1C20FDF7ACFCE6
:105190000020FDF7A9FC3320FDF7A6FC0020FDF759
:1051A000A3FC4420FDF7A0FC0020FDF79DFC50204F
:1051B000FDF79AFC0020FDF797FC6220FDF794FCB8
:1051C0000020FDF791FC7820FDF78EFC0020FDF714
:1051D0008BFC8820FDF788FC0020FDF785FC9720DC
:1051E000FDF782FC0020FDF77FFCA620FDF77CFC8C
:1051F0000020FDF779FCB720FDF776FC0020FDF7D5
:1052000073FCC220FDF770FC0020FDF76DFCC72089
:10521000FDF76AFC0020FDF767FCD120FDF764FC78
:105220000020FDF761FCD520FDF75EFC0020FDF7B6
:105230005BFCDD20FDF758FC0020FDF755FCF3205A
:10524000FDF752FC0020FDF74FFCE420FDF72EFC9B
:105250000120FDF749FC0020FDF746FC0120FDF789
:1052600043FC0020FDF740FC0220FDF73DFC002040
:10527000FDF73AFC2A20FDF737FC0020FDF734FC4F
:105280003C20FDF731FC0020FDF72EFC4B20FDF704
:105290002BFC0020FDF728FC5D20FDF725FC0020FD
:1052A000FDF722FC7420FDF71FFC0020FDF71CFC1D
:1052B0008420FDF719FC0020FDF716FC9320FDF774
:1052C00013FC0020FDF710FCA220FDF70DFC0020D0
:1052D000FDF70AFCB320FDF707FC0020FDF704FCF6
:1052E000BE20FDF701FC0020FDF7FEFBC420FDF70A
:1052F000FBFB0020FDF7F8FBCD20FDF7F5FB0020C0
:10530000FDF7F2FBD320FDF7EFFB0020FDF7ECFBF0
:10531000DD20FDF7E9FB0020FDF7E6FBF320FDF7BC
:10532000E3FB0020FDF7E0FBE520FDF7BFFB0020DD
:10533000FDF7DAFB0020FDF7D7FB0020FDF7D4FBDB
:105340000020FDF7D1FB0220FDF7CEFB0020FDF78A
:10535000CBFB2920FDF7C8FB0020FDF7C5FB3C2057
:10536000FDF7C2FB0020FDF7BFFB4B20FDF7BCFBA8
:105370000020FDF7B9FB5D20FDF7B6FB0020FDF72F
:10538000B3FB7420FDF7B0FB0020FDF7ADFB8420DC
:10539000FDF7AAFB0020FDF7A7FB9320FDF7A4FB78
:1053A0000020FDF7A1FBA220FDF79EFB0020FDF7EA
:1053B0009BFBB320FDF798FB0020FDF795FBBE207B
:1053C000FDF792FB0020FDF78FFBC420FDF78CFB5F
:1053D0000020FDF789FBCD20FDF786FB0020FDF7BF
:1053E00083FBD320FDF780FB0020FDF77DFBDC2055
:1053F000FDF77AFB0020FDF777FBF320FDF774FB48
:105400000020FDF771FBE620FDF750FB1120FDF7B2
:105410006BFB0020FDF768FB3420FDF765FB0020E7
:10542000FDF762FB5620FDF75FFB0020FDF75CFBFC
:105430007620FDF759FB0020FDF756FB7720FDF79E
:1054400053FB0020FDF750FB6620FDF74DFB0020CD
:10545000FDF74AFB8820FDF747FB0020FDF744FBE2
:105460009920FDF741FB0020FDF73EFBBB20FDF737
:105470003BFB0020FDF738FB9920FDF735FB0020B2
:10548000FDF732FB6620FDF72FFB0020FDF72CFB1C
:105490005520FDF729FB0020FDF726FB5520FDF7E1
:1054A00023FB0020FDF720FB4520FDF71DFB00201E
:1054B000FDF71AFB4320FDF717FB0020FDF714FB57
:1054C0004420FDF711FB0020FDF70EFBE720FDF760
:1054D000EDFA3220FDF708FB0020FDF705FB552013
:1054E000FDF702FB0020FDF7FFFA7620FDF7FCFA3E
:1054F0000020FDF7F9FA6620FDF7F6FA0020FDF727
:10550000F3FA6720FDF7F0FA0020FDF7EDFA6720C7
:10551000FDF7EAFA0020FDF7E7FA8720FDF7E4FA45
:105520000020FDF7E1FA9920FDF7DEFA0020FDF7F3
:10553000DBFABB20FDF7D8FA0020FDF7D5FA992059
:10554000FDF7D2FA0020FDF7CFFA7720FDF7CCFA6D
:105550000020FDF7C9FA4420FDF7C6FA0020FDF748
:10556000C3FA5620FDF7C0FA0020FDF7BDFA23204C
:10557000FDF7BAFA0020FDF7B7FA3320FDF7B4FAC9
:105580000020FDF7B1FA4520FDF7AEFA0020FDF747
:10559000ABFAE820FDF78AFA0020FDF7A5FA002013
:1055A000FDF7A2FA9920FDF79FFA0020FDF79CFA7B
:1055B0008720FDF799FA0020FDF796FA8820FDF77D
:1055C00093FA0020FDF790FA7720FDF78DFA00207E
:1055D000FDF78AFA6620FDF787FA0020FDF784FAC6
:1055E0008820FDF781FA0020FDF77EFAAA20FDF75A
:1055F0007BFA0020FDF778FABB20FDF775FA002052
:10560000FDF772FA9920FDF76FFA0020FDF76CFAAA
:105610006620FDF769FA0020FDF766FA5520FDF7D0
:1056200063FA0020FDF760FA5520FDF75DFA0020CF
:10563000FDF75AFA4420FDF757FA0020FDF754FA17
:105640004420FDF751FA0020FDF74EFA5520FDF7F2
:105650004BFA0020FDF748FAE920FDF727FAAA20C7
:10566000FDF742FA0020FDF73FFA0020FDF73CFA73
:105670000020FDF739FA0020FDF718FAAA20FDF7FF
:1056800033FACF20FDF712FA0020FDF72DFA0020A3
:10569000FDF72AFA0020FDF727FA0020FDF724FA8B
:1056A0000020FDF721FA0020FDF71EFA0020FDF78B
:1056B0001BFA0020FDF718FA0020FDF715FA00206C
:1056C000FDF712FA0020FDF70FFA0020FDF70CFAA3
:1056D0000020FDF709FA0020FDF706FA0020FDF78B
:1056E00003FA0020FDF700FA0020FDF7FDF9F02095
:1056F000FDF7DCF90020FDF7F7F95020FDF7F4F98C
:105700000020FDF7F1F90020FDF7EEF90020FDF78C
:10571000EBF9F320FDF7CAF90020FDF7E5F9F920D0
:10572000FDF7C4F90620FDF7DFF91020FDF7DCF9DD
:105730002920FDF7D9F90020FDF7D6F93A20FDF729
:10574000B5F95520FDF7D0F91120FDF7AFF9642028
:10575000FCF7EBFE2920FDF7A9F93520FDF7A6F9A6
:105760000020FDF7C1F95120FDF7A0F9FF20FDF75A
:10577000BBF95320FDF79AF92C20FDF7B5F9552018
:10578000FDF794F98220FDF7AFF92C20FDF78EF993
:1057900002F0C8BAFE48808845F2105188427DD197
:1057A00055214FF47040FDF7F8F9AA214FF201009E
:1057B000FDF7F3F952214FF20200FDF7EEF908214F
:1057C0004FF20300FDF7E9F901214FF20400FDF764
:1057D000E4F90D214FF43040FDF7DFF90D214BF2D4
:1057E0000100FDF7DAF90D214BF20200FDF7D5F9C2
:1057F00034214FF43640FDF7D0F934214BF20160EB
:10580000FDF7CBF934214BF20260FDF7C6F90D210B
:105810004FF43140FDF7C1F90D214BF20110FDF7B6
:10582000BCF90D214BF20210FDF7B7F934214FF40A
:105830003740FDF7B2F934214BF20170FDF7ADF9B5
:1058400034214BF20270FDF7A8F900214FF43240E9
:10585000FDF7A3F900214BF20120FDF79EF900218D
:105860004BF20220FDF799F924214FF43840FDF75F
:1058700094F924214BF60100FDF78FF924214BF612
:105880000200FDF78AF901214FF43F40FDF785F949
:105890000F214FF43340FDF780F900E0FDE30F21C5
:1058A0004BF20130FDF779F90F214BF20230FDF791
:1058B00074F934214FF43940FDF76FF934214BF678
:1058C0000110FDF76AF934214BF60210FDF765F976
:1058D00008214FF43540FDF760F908214BF20150E3
:1058E000FDF75BF908214BF20250FDF756F9032151
:1058F0004FF44240FDF751F924214FF43A40FDF7AF
:105900004CF924214BF60120FDF747F924214BF6F1
:105910000220FDF742F900214FF43C40FDF73DF92C
:1059200078214BF60140FDF738F900214BF6024093
:10593000FDF733F900214FF43D40FDF72EF97821B2
:105940004BF60150FDF729F900214BF60250FDF707
:1059500024F900214FF43E40FDF71FF964214BF676
:105960000160FDF71AF900214FF45140FDF715F9D8
:1059700033214DF20110FDF710F900214DF2021014
:10598000FDF70BF934214DF20310FDF706F9002164
:105990004DF20410FDF701F93A214DF20510FDF723
:1059A000FCF800214DF20610FDF7F7F84A214DF200
:1059B0000710FDF7F2F800214DF20810FDF7EDF8A1
:1059C0005C214DF20910FDF7E8F800214DF20A10B4
:1059D000FDF7E3F881214DF20B10FDF7DEF8002111
:1059E0004DF20C10FDF7D9F8A6214DF20D10FDF780
:1059F000D4F800214DF20E10FDF7CFF8E5214DF25D
:105A00000F10FDF7CAF801214DF21010FDF7C5F88F
:105A100013214DF21110FDF7C0F801214DF21210C3
:105A2000FDF7BBF854214DF21310FDF7B6F8012134
:105A30004DF21410FDF7B1F882214DF21510FDF76B
:105A4000ACF801214DF21610FDF7A7F8CA214DF26E
:105A50001710FDF7A2F802214DF21810FDF79DF87E
:105A600000214DF21910FDF798F802214DF21A109D
:105A7000FDF793F801214DF21B10FDF78EF802217E
:105A80004DF21C10FDF789F834214DF21D10FDF781
:105A900084F802214DF21E10FDF77FF867214DF2C8
:105AA0001F10FDF77AF802214DF22010FDF775F86E
:105AB00084214DF22110FDF770F802214DF22210E1
:105AC000FDF76BF8A4214DF22310FDF766F80221D3
:105AD0004DF22410FDF761F8B7214DF22510FDF7C6
